:1000000058220020912700008D2700008D27000036
:1000100000000000000000000000000000000000E0
:100020000000000000000000000000008D2700001C
:1000300000000000000000008D2700008D27000058
:100040008D2700008D270000C90F0000590C00000B
:100050008D270000790700008D270000C90A0000E5
:10006000551400006514000075140000851400008C
:1000700095140000A51400008D2700008D270000B6
:100080008D2700003D2700004D2700005D27000060
:100090006D2700007D270000B50600008D270000B9
:1000A0008D2700008D2700008D2700008D27000080
:1000B0000000000010B5064C2378002B07D1054B3B
:1000C000002B02D0044800E000BF0123237010BDC4
:1000D00090000020000000009C4E0000084B10B56E
:1000E000002B03D00749084800E000BF0748036819
:1000F000002B00D110BD064B002BFBD09847F9E731
:1001000000000000940000209C4E00009C4E000067
:100110000000000070B50020084B98470500084C0F
:10012000FA218900A047074B186007492800A0471B
:10013000064B18600522064B1A6070BDA124000012
:100140004D3600000000002040420F000400002057
:1001500010E000E030B5084B1C68084A00258021FB
:100160004902013807D3002CFBD054609560136816
:100170000B42FCD0F5E730BD0400002010E000E0A9
:1001800030B5084B1C68084A002580214902013817
:1001900007D3002CFBD05460956013680B42FCD051
:1001A000F5E730BD0000002010E000E00C4B1B68BC
:1001B000002B06D1EFF31083002B07D00022094B50
:1001C0001A70074A136801331360704772B6BFF3A1
:1001D0005F8F0022044B1A700132024B1A70F0E755
:1001E000AC000020B000002008000020084B1A6876
:1001F000013A1A601B68002B09D1064B1B78002BB3
:1002000005D00122044B1A70BFF35F8F62B67047AE
:10021000AC000020B000002008000020F0B583B042
:1002200001AC012565700023A37025702100092011
:10023000114EB047114F80239B00BB6125702100F8
:100240001220B0478023DB02BB61257021000D2006
:10025000B04780239B017B61257021002320B0479C
:100260000822074B5A61257021001C20B0478023CB
:100270005B057B6103B0F0BDED0D00000028004080
:10028000802800400020704710B500230022037032
:1002900043708370C370002103830362C36106242B
:1002A0000471C0246401C480017242728272C272FD
:1002B00002732A24025542738273C273036102756A
:1002C000063C0255C3840385417510BDF0B5CE468A
:1002D00000B598B005000C0016000800B24B984716
:1002E0002C60B24A136A08210B431362227805235B
:1002F000D20704D5180018B004BC9146F0BD2A6896
:10030000138C9BB2002BFBD122781C339207F1D4C3
:1003100073782B71002B04D1A54AD36904210B43B8
:10032000D3610023AB60EB602B61AB76EB762B8364
:100330002B7780009F4BC5502A23F35C002B05D1FF
:10034000337B002B02D101336B7701E000236B7705
:100350002F6833786A46137069461E20964B98477B
:100360001E20964B984734795822954902A8954B00
:100370009847132C0BD9F4885822914902A8914B25
:100380009847132C11D900248E4B99461EE0A400E7
:1003900002ABE05801A900234B70CB708B70013386
:1003A0000B70C0B2884B9847E5E7A40002ABE05859
:1003B00001A900234B70CB708B7001330B70C0B25E
:1003C000814B9847DFE70134142C18D00123A34058
:1003D00032691A42F7D05822794902A8C847132C2B
:1003E000F1D8A30002AA985801A900234B70CB7042
:1003F0008B7001330B70C0B2734B9847E3E7737B8C
:100400009B01B27BD2011343DBB23B70337DDB0136
:1004100072781343DBB2BB70F378342B00D940E120
:100420009B006A4AD3589F460422102002211AE0FA
:10043000717A327A102016E006221020012112E093
:100440000822102000210EE00022302000210AE0C6
:1004500000222020002106E000220020002102E0EE
:10046000022210200121090170230B4013433B732A
:100470002A68138C9BB2002BFBD1727D17333F2A65
:1004800000D937E7F37BDB011A43D2B27A732A68CB
:10049000138C9BB2002BFBD1B3787B702423F35CCD
:1004A000DB00327B92001A43F37A1343B27A520094
:1004B000134303437B812A68138C9BB2002BFBD12F
:1004C000328B002A20D0102800D1C9E000D883E068
:1004D000202800D1A3E0302816D1F37A002B0AD0CF
:1004E000F16980311723FF2900D903E7316A803190
:1004F000FF2900D9FEE61723F169FF2900DDF9E69F
:10050000316AFF2900DDF5E67B891A437A812A6882
:10051000138C9BB2002BFBD1B38BFB812A68138C0D
:100520009BB2002BFBD1338C3B822A68138C9BB28D
:10053000002BFBD13379F28813433B812A68138C5B
:100540009BB2002BFBD12A33F35CFB7007233B717A
:100550001D33F35C002B1BD0F28C1D4917238A42FC
:1005600000D9C7E67A822A68138C9BB2002BFBD194
:10057000318D80231B01CA18154892B2172382427D
:1005800000D9B7E6B9822A68138C9BB2002BFBD145
:10059000104B1B681A02E021C9000A409B065B0F42
:1005A0001343BB850023A5E685020000000400403C
:1005B00000140040AC0100207D2500000D25000046
:1005C000B04900000138000079260000DC48000036
:1005D000FF0F000020608000002895D1F37A002BE7
:1005E00012D0F369802000018446634419002E482C
:1005F0001723814200D97DE6336A634419002A48F3
:100600001723814200D975E627491723F0698842EC
:1006100000DD6FE6306A884200DD6BE674E7F37A4E
:10062000002B12D0F36980208000844663441900B7
:100630001E481723814200D95CE6336A63441900DF
:100640001A481723814200D954E618491723F06944
:10065000884200DD4EE6306A884200DD4AE653E714
:10066000F37A002B12D0F3698020000284466344A1
:1006700019000F481723814200D93BE6336A6344CF
:1006800019000B481723814200D933E60849172384
:10069000F069884200DD2DE6306A884200DD29E6F7
:1006A00032E7172326E6C046FF0F0000FF030000D5
:1006B000FFFF000070B52F4B1C6823689A795D79A5
:1006C0001540EA072AD501229A716269931C636179
:1006D00023689B8C9BB21380238B013B9BB22383AB
:1006E000002B15D0637F002B18D02268D3795BB222
:1006F000002B13DB138C9BB2002BFBD1137E02214A
:100700000B4313762268138C9BB2002BFBD105E0C0
:10071000012322681371237F052B16D06B0708D5A0
:10072000042322689371E37E9B0702D5A37E9B0777
:1007300017D4AB0708D5022322689371E37E5B07C9
:1007400002D5A37E5B0710D470BD00232377E37E20
:10075000DB07E3D5A37EDB07E0D52000A36898473D
:10076000DCE72000E3689847E3E723692000984727
:10077000EAE7C046AC01002010B5254B9847254953
:100780000B8C0F2213409B002348185803781A4003
:100790003F23CA540F33CA5CD2B2017809011F4B00
:1007A0005B1859885B8CCB1A4361D3070FD50121A5
:1007B0004E23184AD1543E3B4374037CDB0703D5D8
:1007C0004368002B00D09847154B984710BD9307FE
:1007D0000DD502214E230F4AD15400234374037CCC
:1007E0009B07F1D58368002BEED09847ECE75307C1
:1007F000EAD504214E23074AD154483B4374037C75
:100800005B07E1D5C368002BDED09847DCE7C04624
:10081000AD01000000040044B400002000000030DE
:10082000ED01000000230370437003228270037106
:100830004371C3707047000070B504000D00424B57
:100840009847424B1B78002B15D1414A11698023F0
:100850001B010B4313613F4B1A8802218A431A8004
:1008600001221A803C4A5A6320329A633B4A1A801A
:10087000364B01221A70344B9847344B5B68002684
:10088000DA0708D59B0705D5354B9847344B984771
:10089000142057E001262D4A51680123B3400B4331
:1008A0005360137A013B13722D4B9847FF2EEDD006
:1008B0002670284B3F229E540132995C02208143CE
:1008C000995401219954EB78002B04D021498B5C79
:1008D0003E3003438B541C4B984723780F221A4019
:1008E0001C4B3F215A541A6920783E3981408A4373
:1008F0001A612A785201602313406A781202FC219F
:1009000089010A401343AA789205C02109040A40CC
:1009100013432979002904D007220A4008210A43F9
:1009200013436A79002A01D010221343094A536401
:100930000B4DA8470023A36123789B00094A9C50D4
:10094000A847002070BDC046AD0100000C0000208B
:10095000000400400004004400000030020F0000CA
:10096000ED010000B400002070B504001A4B984758
:10097000637C052B08D0A3695B889BB2002B07D151
:10098000164B9847172070BD144B98470520FAE77F
:100990002022134B1A6022780F231340114D3F225F
:1009A000AB542378104AD25C072313404D22AB543A
:1009B0000523637423781B010C48C018A1693D3AD4
:1009C0000B4B98474022AB5C02210B43AB54034BCB
:1009D00098470020D7E7C046AD010000ED010000B8
:1009E00000E100E000040044BC00002000000030F2
:1009F00001380000F0B50A7803880126324001244E
:100A0000A343134303804B78048803273B405B00D8
:100A1000062294431C4304808D7804883D40ED00F9
:100A200018239C432C430480CA7803883A4012025E
:100A3000164C2340134303800B79048833409B02F8
:100A4000134A14401C4304804D7904883540ED025C
:100A5000104B1C402C4304808A79038832401203D7
:100A60000D4C234013430380CB7907221A4003889F
:100A70005203DB04DB0C134303800B894380CB68F8
:100A800043600B6983604B69C360F0BDFFFCFFFFEF
:100A9000FFFBFFFFFFF7FFFFFFEFFFFF427C052398
:100AA000052A0BD08369002B0AD0DA68002A03D00C
:100AB000DB68DA68002AFBD1D96000231800704790
:100AC00081610023FAE7000010B50C4B1C698621F8
:100AD000C9058A69986802439A60094B8B61002CAA
:100AE00005D0206863689847A468002CF9D1034BAF
:100AF000D9689A688A439A6010BDC04618000020E1
:100B0000FF0FFF0F06490B6A012213430B62862376
:100B1000DB051A7019000B781342FCD17047C046F0
:100B20000004004001230370002343708370C370EE
:100B3000037143717047000070B582B005000E006C
:100B4000254B9847254B1B68DA070ED55B08012417
:100B500001221A420AD05B080134E4B20C2CF8D10D
:100B60001F4B9847142002B070BD00241B4A116827
:100B70000123A3400B4313601379013B1371184BFE
:100B800098471420FF2CEED02C707378022B0AD0DB
:100B900001A9F3780B700534E4B22000114B98479B
:100BA0002000114B9847B2787F231340327992038B
:100BB00013437279D203134372781202C021890061
:100BC0000A40134332789202C02109010A401343BC
:100BD0006B600020C7E7C046AD0100001800002090
:100BE000ED0100007D2500000D2500000278013296
:100BF0001F2313408622D205203189008B500378B1
:100C0000416808339B009950002070471723002A41
:100C100001D0180070478B00064A9B58002B03D068
:100C2000834205D01D23F4E7890088500023F0E7B4
:100C30000023EEE7B40100201723002901D018009B
:100C4000704700221F2800D8024A01238340136105
:100C50000023F4E70024004070B50022104B1A7006
:100C6000002310491F25104E0D4C0AE00D4908E0E5
:100C700023780133DBB223700F2B10D800211F2BF8
:100C8000F4D9280018400122824048691042EFD070
:100C90004A619B009B59002BEAD09847E8E770BD5A
:100CA000B001002000240040B4010020064A13785F
:100CB00002210B431370012053681942FCD1536881
:100CC0001842F9D17047C04600240040064A137804
:100CD00002218B431370012053681942FCD15368E1
:100CE0001842F9D17047C0460024004010B5124A9E
:100CF000516980239B000B435361104A13780121F3
:100D00000B4313700131012053681942FCD1536821
:100D10001842F9D1094A137810210B431370084B7C
:100D200019004031002204C38B42FCD10822054B3C
:100D30001A60054B984710BD000400400024004095
:100D4000B401002000E100E0AD0C000000230360CE
:100D500043600122027283720132C2724372704791
:100D6000F0B583B005000C001C4B984701A9002387
:100D70004B70CB7023790B70237A8B702078184BD3
:100D8000984700211F2D00D8164907222A409200BB
:100D9000E77AA37A002B01D008231F43EB089B00BE
:100DA000CB18D8690F269640B04397403A000243CB
:100DB000DA61637A002B0BD18A690123AB40DB43F4
:100DC0001B041B0C13408B61074B984703B0F0BD0D
:100DD0008A690123AB4013438B61F5E7CD0C00001A
:100DE0007926000000240040AD0C000000B583B05F
:100DF00001AB80221A700A785A704A789A708A7801
:100E0000DA701900014B984703B000BD7926000045
:100E100003681869431E9841C0B2704770B504005A
:100E200006680422084B1A60084D2000A8470028D5
:100E3000FBD13388022213433380044D2000A8479E
:100E40000028FBD170BDC04600E100E0110E00009B
:100E500070B504000668042180230A4AD1500A4D67
:100E60002000A8470028FBD1084B3381B381338889
:100E7000022293433380044D2000A8470028FBD171
:100E800070BDC04600E100E0110E0000FF81FFFFD1
:100E900070B5040006680A4B98470023A386E386D2
:100EA000084D2000A8470028FBD1338801221343B6
:100EB0003380044D2000A8470028FBD170BDC046F8
:100EC000510E0000110E0000F0B583B00400019136
:100ED00015000668134F2000B8470028FBD123797E
:100EE000002B0ED0012B19D11730012D17D8083542
:100EF000AD00019BAB510B4D2000A8470028FBD152
:100F00000DE01720022D0AD8074B019A9A4206D805
:100F10006B469B8810356D00AB53ECE71A2003B08D
:100F2000F0BDC046110E0000FFFF000070B50400C8
:100F3000150001601F4A516980235B000B43536118
:100F400001221D4B1A611D4B9847AB7823711C4B36
:100F50001C6022682B79DB0329880B439BB213802A
:100F6000AB78002B13D01720012B0FD113889BB225
:100F70001380EB78002B03D0138880210B43138060
:100F8000A968002220000F4B9847002070BD1388ED
:100F900004210B431380EB781720002BF6D100229D
:100FA000A9682000074EB047E96801222000B04739
:100FB0000020EBE70004004000100040910E00000C
:100FC000F4010020C90E0000F8B5DE4657464E4633
:100FD0004546E0B52B4B1B689A461E68DB8E524691
:100FE000928E1A409046B289738913401AB2002A31
:100FF00008DBFF271F402AD0002401239946FE3337
:101000009B4614E043465B0507D41F4BB3813CBCB1
:1010100090469946A246AB46F8BD53461B6B98478F
:10102000F3E75B461D40B5810134082CEFD0230067
:101030004D46A5402F42F4D0424622414946114236
:10104000EFD002339B0052469B589847E9E7DA05F8
:101050000AD54346DB0503D480235B00B381D6E782
:1010600053469B6A9847F7E79B05D0D543469B05B7
:1010700003D480239B00B381C9E75346DB6A9847BA
:10108000F7E7C046F40100200080FFFFF0B5DE4620
:1010900057464E464546E0B587B080460491160057
:1010A0001F000022002300218B463F240120210045
:1010B000009601975C4603944446059413E020246F
:1010C000641A0500E540A84614E0009C019D121B2F
:1010D000AB415C464D462C43A346039C45462C43FE
:1010E0000394013925D3202464420C19E7D4050068
:1010F000A540A84604008C40A14692185B4114000C
:101100001D00059E4F463E40B446049E47463E4065
:10111000B246664657463E4303D006002643320099
:101120002B00009C019D9D42DBD8CED19442D8D8A3
:10113000CBE7039B5846190007B03CBC9046994644
:10114000A246AB46F0BD10B54908402300248142B9
:1011500002D2180010BD1C00091A631C9BB2884201
:10116000F9D94023FF2CF4D814800023F1E70000C4
:10117000F0B583B00F00160008AA117804004C43A4
:101180004022BC4202D9100003B0F0BD002B14D1A4
:10119000020008000021194CA04701003A0000237A
:1011A0000020174CA04700220123121A8B41120C79
:1011B0001B041A4332800022E5E70022012BF9D1FB
:1011C0000A00002300210D4CA04702000B000092F2
:1011D0000193380000210A4CA047050080239B01A1
:1011E00040229842CFD8790FF800009A019BA0477F
:1011F000EA00821AD2B252032A43DBE765370000C5
:101200008D10000010B582B004000E4B1B78002B2F
:1012100007D0002905D10B4B5B78834210D01D20ED
:101220000CE001A90C701120074B98471120074BC7
:101230009847044B5C7001221A70002002B010BD68
:101240000020FBE7C00000207D2500000D250000E8
:101250003C4B984232D00AD93B4B98424ED03B4B44
:10126000984255D03A4B984238D00020704784239A
:10127000DB0598420CD0374B9842F6D1012917D0A4
:10128000002957D0022915D0032915D00020EDE7F9
:10129000012907D000294BD0022905D0032905D008
:1012A0000020E3E72C48E1E72C48DFE72C48DDE7A6
:1012B0002C48DBE72C48D9E72C48D7E7012907D091
:1012C000002939D0022905D0032905D00020CDE717
:1012D0002748CBE72748C9E72748C7E7012907D0B0
:1012E00000292BD0022905D0032905D00020BDE715
:1012F0002248BBE72248B9E72248B7E7022903D0D2
:10130000032903D00020B1E71F48AFE71F48ADE72E
:10131000012907D0002913D0022905D0032905D0BF
:101320000020A3E71A48A1E71A489FE71A489DE75B
:101330001A489BE7032099E7194897E7194895E76A
:10134000194893E7000800420010004200040043DF
:10135000000C0042000400420300050003000600E8
:10136000030007000300010003001E0003001F002C
:101370000300090003000A0003000B000300110032
:10138000030012000300130003000E0003000F000F
:1013900003001700030018000300190003000400F5
:1013A00003000800030010000300160030B587B0EA
:1013B0000B4B6A4632CB32C232CB32C2009B8342E5
:1013C0000BD001239A0069465258824206D001335D
:1013D000062BF7D1002007B030BD0023D8B2FAE7C2
:1013E000084A000070470000F0B50A4B1B78002B3C
:1013F0000CD1094F094E0A4D0024DE515A191460D0
:101400000433182BF9D10122024B1A708000024BD1
:10141000C150F0BDC2000020C4000020E513000050
:10142000F801002000B583B008236A461370013329
:101430005370013393700133D3700133137101334F
:101440005371034B98476B46185603B000BDC04616
:10145000AD13000010B5024B1B680020984710BD6B
:10146000C400002010B5024B5B680120984710BDF6
:10147000C400002010B5024B9B680220984710BDA5
:10148000C400002010B5024BDB680320984710BD54
:10149000C400002010B5024B1B690420984710BD02
:1014A000C400002010B5024B5B690520984710BDB1
:1014B000C4000020F0B5D6464F464646C0B58AB0B7
:1014C00006000F00140031600B689B070AD40B68FC
:1014D0000520DB0700D497E00AB01CBC9046994673
:1014E000A246F0BD936A0593D36A0693136B0793E4
:1014F000536B089300250AE038009A4B98470EE09A
:101500000F231840814530D10135042D31D0E9B287
:10151000AB0002AA0C201218D0580028ECD0431CB3
:10152000F2D001040B0C9946000CC3B29C46002378
:10153000020605D463465B09DB018B4A90464344AF
:101540001F22604602409818403000788246802072
:101550005146C907D6D552089B1830331878C0B207
:101560006346DB07CCD50009CCE7002333601C20A1
:10157000B2E711207D4B984722780025012A26D01A
:101580006368A2681343E26813432B43227C617CA7
:10159000002901D080210B43A17C002902D08021A9
:1015A00089020A43E17C002902D0802189000A4394
:1015B000217D002902D0802189010A433968022057
:1015C00003438B4217D0002333601C2084E704AA16
:1015D0000100A069664B984703001720002B00D03C
:1015E0007AE73B7BDBB204AA127805309A4200D03E
:1015F00072E70C35C4E77B689342E4D123787371BA
:10160000237CB371002067E708005A4B98470528F0
:1016100000D19FE0030012335749CD690122824077
:101620002A43CA6109A92425625D0A70DBB20193CD
:101630001800524B98470198514B9847605D002124
:10164000504B98472378012B19D03368984604AB48
:1016500080221A7000225A7001219970DA70237862
:10166000002B01D104AB9A70A36A0593E36A069339
:10167000236B0793636B0893002705AD11E03B686C
:101680000C2213433B60E0E74046364B98470DE0A1
:1016900004A90870000CC0B23B4B98470137042FD7
:1016A00007D0F9B2BB0058590028EDD0431CEFD148
:1016B000F4E723787371237CB371A37CF371237DEA
:1016C0003372002202ABDA802378012B2AD06368C0
:1016D000A2681343E2681343217C627C002A03D191
:1016E0002A4A9278920701D580221343A27C002ACD
:1016F00002D0802292021143E27C002A02D0802292
:1017000092001143227D002A02D0802292011143CF
:101710004246126813434246136053680B435360BA
:101720000020D9E63068134B98471230C0B20F4BF7
:101730009847010002AB9A1DA0690D4B9847030022
:101740001720002B00D0C7E602AB06331B784246B9
:101750001373BCE7084A136A02210B431362182370
:1017600060E7C0465112000000280040A12500009B
:1017700047110000AD130000000400407D2500006B
:101780000D25000005120000792600000020004110
:1017900010B544791523012C01D0180010BD047A2E
:1017A0000023002CF9D1002A58D04B78002B44D0CC
:1017B00003681B7EDB0710D40A78D10900230029B7
:1017C00004D15309DB012E498C4663441F2111408B
:1017D00001228A409A610523DFE70A78D4090023B1
:1017E000002C04D15309DB01254CA44663441F247B
:1017F00014400122A2405A6103681A7ED20701D523
:101800008A789A62C2790023002AC6D1026804212C
:10181000137E0B42FCD0117E00234907BDD5538BAC
:101820005B0701D5042353838379012B02D0936A8C
:101830000023B2E7936A0023AFE70A78D1090023B7
:10184000002904D15309DB010D498C4663441F2153
:10185000114001228A405A6100239EE70A78D1098B
:101860000023002904D15309DB0105498C46634458
:101870001F21114001228A409A6100238DE7C04652
:1018800000280040F0B5DE4657464E464546E0B5D6
:1018900091B005000C00160029600800C44B984761
:1018A000020005280DD0070012370300216805202B
:1018B000C90709D511B03CBC90469946A246AB4633
:1018C000F0BD18270123F1E7216817308907F1D40B
:1018D000052A49D0B749C86901229A401300034339
:1018E000CB610FA92D239846F35C0B70FFB2380033
:1018F000B14B98473800B14B98474346F05C002104
:10190000AF4B9847F37A6B712423F35CAB712523BB
:10191000F35CEB71F37E2B72337F6B722B6898460E
:101920001800A34B9847052826D0123000220E231A
:1019300006A98C4663441A80328A02928023DB0116
:101940009A4200D1A7E019D9C023DB01029A9A423A
:1019500000D19BE080231B029A4200D023E10323A5
:1019600006930023079312E09249086A043A9A40CA
:10197000130003430B62B4E71820D7E780239B01D1
:101980009A4200D00FE1102306930F3B0793336870
:101990000593F3689B4673690393337E0493262370
:1019A000F35C9A4673689946002B00D19BE0802334
:1019B0005B05994504D12723F35C002B00D180E01F
:1019C000737E002B02D0B37E424693730E2306AA89
:1019D000944663441B8842469381059B5A461343B1
:1019E000039A13434A461343029F1F43049B1B025F
:1019F0001F4353465B071F432723F35C002B01D192
:101A000004331F43737E9B02327F52021343727F63
:101A1000120213432422B25C520413432522B25C07
:101A200012041343B17AF27A114319433389FF2B1D
:101A30007DD080225204174319432C23F35C002BE2
:101A400003D1604B9B789B0701D580231F432A68F5
:101A5000D369002BFCD1434659602A68D369002B17
:101A6000FCD143461F600EAB80221A7000225A70D0
:101A7000DA709A70336B0A93736B0B93B36B0C939E
:101A8000F36B02930D9300270AAE5EE008230693E2
:101A9000073B07937BE733680593F3689B467369BD
:101AA0000393337E04932623F35C9A467368994626
:101AB000002B14D080235B05994500D17BE70020E3
:101AC00020E0336A1F00C0B23F4B984701000E224E
:101AD00006AB9C46624438003C4B984712E0082312
:101AE0000693002307932723F35C002B0ED0069B5D
:101AF0000093079B0E2206A98C466244B16A306AA5
:101B0000334FB847002800D0D4E659E7336A1F00A6
:101B1000C0B22D4B98470100069B0093079B0E22F5
:101B200006A8844662443800294FB847EAE7F37EA6
:101B3000002B82D08023DB041F437EE72000254B4F
:101B4000984707E00137042F0DD0F9B2BB00985930
:101B50000028F3D0431CF5D00EA90870000CC0B2C9
:101B60001D4B9847EEE70023EB602B616B61AB6187
:101B7000EB612B62AB626B620022EB85AB8530338D
:101B8000EA540133EA540133EA540133EA54286831
:101B9000074B984704001149114B9847A400114B7B
:101BA000E550002086E61023069300230793EEE617
:101BB000AD130000000400407D2500000D2500004D
:101BC0000512000000200041A1250000471100007F
:101BD000711100005112000079260000791C0000EC
:101BE000E9130000F8010020C2791C23002A01D16A
:101BF00018007047C28D92B2173B002AF8D10268D4
:101C000011850221137E0B42FCD00023F0E782797C
:101C10001C23002A01D118007047828D92B2173B15
:101C2000002AF8D10268107E4007F4D5538BDBB24E
:101C300098061DD0980703D5022353831833EAE78B
:101C4000580703D5042353831A33E4E7D80703D591
:101C5000012353831233DEE7D80603D510235383C1
:101C60003233D8E79B0603D5202353832133D2E7B1
:101C7000138D0B800023CEE7F8B58000624BC5586A
:101C80002C68E369002BFCD1237EA67D1E40302307
:101C9000EB5C3122AF5C1F40F30722D5EB8D9BB28A
:101CA000002B1CD0AA6A1378DBB2511CA962697997
:101CB00001290ED09BB2DB05DB0D2385EB8D013BAB
:101CC0009BB2EB85002B0CD1013323750133A37537
:101CD00007E0517809020B430232AA62EBE70123C5
:101CE0002375B30706D50223237500223133EA5446
:101CF000FB071AD4730765D5AB8D9BB2002B5FD061
:101D0000638BDBB21A0714D43F221340002B34D06C
:101D10009A0711D51A223223EA54303B63837B079A
:101D200050D528006B6998474CE02800EB6898472D
:101D3000E0E737221340E9E75A0705D51E22322390
:101D4000EA542E3B6383EAE7DA0705D513223223F0
:101D5000EA54313B6383E2E7DA0605D542223223B7
:101D6000EA54223B6383DAE720221A42D7D0213299
:101D70003223EA54123B6383D1E7238DDB05DB0D6D
:101D8000DAB2696A0A706A6A511C69626979012962
:101D900010D0AB8D013B9BB2AB85002B12D104332D
:101DA000237500222E33EA54BB070BD528002B697C
:101DB000984707E01B0A53706B6A01336B62E8E7D0
:101DC00004232375F30604D5102323752376FB061D
:101DD0000ED4B30604D52023237523763B070BD4FA
:101DE000330704D5082323752376BB0608D4F8BD32
:101DF0002800EB699847ECE72800AB699847EFE7C4
:101E00002B6A28009847F2E7F801002010B508284F
:101E100003D880001C4B1B589F46002032E01B4B10
:101E200018692FE01A4B187D0007800F431C1948D2
:101E3000584327E0154B586924E0144B1B680020D9
:101E40009B071FD5124980225200CB681342FCD059
:101E50000E4B1B685B0701D40F4813E000200F4BAB
:101E600098470A4B9B681B041B0C58430AE0282325
:101E7000074AD35C00209B0704D5044BD86801E0D7
:101E80008020000210BDC046204A0000DC00002077
:101E9000000C004000093D00006CDC02A1250000A0
:101EA00070B50B4C237D857846780278032111406C
:101EB00089000C2293430B430B3A3240920140219C
:101EC0008B431343ED017F2213402B43237570BDD9
:101ED000000C0040F0B5D6464F464646C0B5204BF4
:101EE0009A465B69457801784C424C41A14681781D
:101EF0008C46C1788846467A077A847A40681949C0
:101F00004861012148468000042293430343404630
:101F10000840C00004329343034360460840000178
:101F20000832934303430F40BF01402083433B43A8
:101F30000E40F601403083433343793805402D028B
:101F4000094803402B4321400903084803400B4341
:101F5000524653611CBC90469946A246F0BDC0460D
:101F600000100040DC000020FFF8FFFFFFEFFFFF44
:101F700010B5837A9B061B0C82899205920D134340
:101F80001A494B60037A427A13438288C4882243F9
:101F900013434278D20113438278920113430B60BA
:101FA0000378042B11D0202B0ED1837B9B06428A11
:101FB0001343028A12040E490A4013430B4A9360EA
:101FC00011680C4B0B43136010BD837B9B06428A48
:101FD0001343028A120406490A401343034A9360DA
:101FE000136804210B431360EEE7C046DC000020B9
:101FF0000000FF0324040000082803D88000294BB8
:102000001B589F4617204BE0274A137D02210B43A4
:102010001375002044E0254A936902210B43936124
:1020200000203DE0204A138A02210B431382002046
:1020300036E01E4A536902210B43536100202FE012
:102040001B490B68022213430B60174B1A831900BC
:10205000FE32CB681342FCD0154A9168124B1962CC
:102060005268DA6100221A8319000132FF32CB680C
:102070001342FCD00E4B1B689BB20B4A138300200B
:102080000EE0094928228B5C022003438B54080090
:102090003821263A435C1342FCD1002000E00020A6
:1020A0007047C046444A0000000C00400010004049
:1020B000DC000020082832D880001A4B1B589F46AD
:1020C000194A137D02218B43137500207047174A6C
:1020D000936902218B4393610020F7E7124A138A28
:1020E00002218B4313820020F0E7104A536902213A
:1020F0008B4353610020E9E70D4B1A6802218A43A4
:102100001A601B689BB2084A13830020DEE7064969
:1021100028228B5C022083438B540020D6E71720B3
:10212000D4E7C046684A0000000C004000100040A0
:10213000DC000020082803D88000184B1B589F465D
:1021400000202AE0164BD868C006C00F25E0154BCA
:10215000D8688007C00F20E0114BDB6801201840D1
:102160001BE0104BDB680120184016E00C4BD868D0
:10217000D0231B0118400C4B9C46604443425841FD
:10218000C0B20AE03C23064AD05C393B1840033811
:1021900043425841C0B200E0012070478C4A000021
:1021A000000C00400010004000F3FFFFF0B5CE46E9
:1021B000474680B589B080225200534B9A60FD3A61
:1021C000524B9A60524A53681E218B431C390B4371
:1021D00053608023DB059B78022B0FD08023DB0527
:1021E0009B785BB2002B09DB8023DB0501229A710F
:1021F00001329A701A009379002BFCD005A80023B5
:10220000037080221202426083700122C2708372C6
:1022100004214170437202723E4B984705203E4BA9
:1022200098473E490122CB681A42FCD03B4A536989
:1022300080210B43536102A901254D6000244C709D
:102240000C724C7203230B700020354B984706200C
:10225000344B984701A80223037084704570324BB9
:10226000984706202C4B984727491022CB681A42E2
:10227000FCD002AC01260396002565700623994622
:1022800023702572657221000020254B98469847DF
:102290001D4A137D80210B431375244B9847244F0F
:1022A000BE717E713E71666065704B46237025720B
:1022B000657221000020C04700201E4B9847002077
:1022C0001D4B98473979C9B21C4B98471C4B984213
:1022D00014D88023DB059B78002B0FD08023DB05EF
:1022E0009B785BB2002B09DB8023DB0501229A710E
:1022F00000229A701A009379002BFCD009B00CBC14
:1023000090469946F0BDC046000C004000140040C5
:1023100000400041D51E0000F91F000000100040E1
:1023200069230000B5200000A11E00004523000025
:102330000004004015240000A12400004D360000D8
:10234000001BB700064A536940210B435361012229
:10235000044B1A7019000B781342FCD17047C04629
:10236000000400400018004070B504000D784B7860
:10237000002B02D08023DB001D434B7A002B02D0C0
:1023800080231B011D43486801280FD9431E1842B2
:1023900031D102282DD90223002201325B0098425C
:1023A000FBD880235B011D43120415430B7A002BDD
:1023B00002D080239B011D430426A6401149124AE6
:1023C0004B6813401E42FBD1104B9847A4000D4BA5
:1023D0009C466444226A80235B001A402A4322629E
:1023E0006146094A4B6813401E42FBD1084B98478F
:1023F00070BD0022D5E7000480239B0018430543ED
:10240000D4E7C04600180040FC070000AD01000002
:10241000ED01000010B504000422824009480A4979
:1024200043680B401A42FBD1084B9847A400054B68
:102430009C466444226A80235B0013432362044B5E
:10244000984710BD00180040FC070000AD010000D7
:10245000ED01000010B50400042282400B480C4935
:1024600043680B401A42FBD10A4B9847A000074B28
:102470009C466044036A084A13400362802252006B
:10248000036A1342FCD1054B984710BD0018004069
:10249000FC070000AD010000FFFEFFFFED010000A2
:1024A000F8B50400042282401248134943680B40E7
:1024B0001A42FBD1114B98470E4F0834A400E05943
:1024C0000007000F0E4B98470600E559ED04ED0F8D
:1024D000E459240C0B4B9847002D07D1012C07D948
:1024E00021003000084B9847060001E00134E64027
:1024F0003000F8BD00180040FC070000AD010000EE
:102500000D1E0000ED0100004D36000010B5040066
:10251000094B9847A000094B9C4660448022835891
:1025200040210B4383504031403A43581A42FCD07B
:10253000034B984710BDC046AD0100000018004095
:10254000ED01000010B50400094B9847A000094BAD
:102550009C4660448022835840218B438350403105
:10256000403A43581A42FCD1034B984710BDC0462D
:10257000AD01000000180040ED01000070B504003E
:102580000D00054B98472A780F2313402034A400F0
:10259000024AA35070BDC046452500000018004007
:1025A00010B50400064B98472034A400054BE458AE
:1025B0002407240F044B98472000044B984710BD74
:1025C000AD01000000180040ED010000A124000052
:1025D00030B5D378002B35D11378802B29D01B064A
:1025E00080246402234354780225AC4306D19478B6
:1025F000002C20D18024A402234341605478013C64
:10260000012C1CD90D042D0CA024E4052C431C43E3
:1026100084620D0CD02424062C431C438462D4789D
:10262000002C22D15B031CD59378012B1ED0416175
:1026300017E00023D7E7C024E4022343DDE70D4C75
:102640002340DFE741600C04240CA023DB05234377
:1026500083620C0CD0231B0623438362D378002BA8
:1026600003D15378013B012B02D930BD8161F8E7DA
:102670008160FAE7FFFFFBFF10B50A00C1090023E4
:10268000002904D14309DB0105498C4663441F241A
:102690002040012181401800024B984710BDC046E0
:1026A00000280040D12500007047000010B5054B00
:1026B0009847054B9847054B9847054B9847054B5E
:1026C000984710BDAD2100001D020000050B000061
:1026D000ED0C0000A926000070B58000164BC45810
:1026E00023689D7A227E637E13401D40EB0706D44B
:1026F000AB070BD4EB0610D4AB0615D470BD20008D
:10270000A3689847012322689372F1E72000E368E9
:102710009847022322689372ECE7200023699847C8
:10272000102322689372E7E72000636998472368C3
:1027300020229A72E2E7C0461002002010B5002065
:10274000014B984710BDC046D926000010B50120A6
:10275000014B984710BDC046D926000010B5022095
:10276000014B984710BDC046D926000010B5032084
:10277000014B984710BDC046D926000010B5042073
:10278000014B984710BDC046D9260000FEE7000067
:1027900010B51A4A1A4B9A4211D01A00194B9A4294
:1027A0000DD2194A03339B1A9B0801339B00002268
:1027B000134812498C58845004329A42FAD1134A71
:1027C000134B9A420AD2D34311495B1803218B431E
:1027D00004339B18002102C29342FCD10D4AFF2111
:1027E0000D4B8B4393600D4A53687F390B43536005
:1027F0000B4B98470B4B9847FEE7C0469C4E00009A
:102800000000002090000020040000209000002024
:102810005402002000ED00E00000000000400041F4
:10282000B9370000F12F0000F0B5C64600B50C0026
:10283000904600280FD1002A11DD8F18094E0A4D4D
:10284000306821002B6898470134BC42F8D14046DB
:1028500004BC9046F0BD01235B429846F7E78046F2
:10286000F5E7C0462C02002024020020F0B5C64641
:1028700000B50E0015000138022810D8002A11D02A
:1028800000240C4B98460C4F43461868315D3B685A
:102890009847002808DB0134A542F5D106E0012461
:1028A000644203E0140001E001246442200004BCFF
:1028B0009046F0BD2C020020280200200300064AAA
:1028C0001268002A04D0044A1068C31813607047C5
:1028D0000249014A1160F6E7F40000205822002066
:1028E00001204042704780239B014B6000207047CD
:1028F000012070470020704710B5034B1B68002B68
:1029000000D0984710BDC046F800002010B5034B1A
:102910001B68002B00D0984710BDC046FC0000206B
:1029200010B5034B1B68002B00D0984710BDC04664
:1029300000010020134B1B6801211A7E0A42FCD0C3
:102940001A7ED20700D5986202211A7E0A42FCD074
:1029500004211A7E0A42FCD01A7E002052070AD5B2
:102960005A8B520701D504225A83064A9279012ACA
:1029700003D0986AC0B2C0B27047986AC005C00D53
:10298000F9E7C0460401002000B583B001A9012386
:102990004B7000228A700B702F20024B984703B0B7
:1029A00000BDC046ED0D000010B5012202490348EC
:1029B000034B984710BDC0463002002004010020A0
:1029C0009117000010B5002202490348034B9847B5
:1029D00010BDC04630020020040100209117000005
:1029E000F0B5D6464F464646C0B590B001AC01267C
:1029F00066700025A570267021005220524FB847FE
:102A000021003E20B84721003F20B84721002F2059
:102A1000B8478022D2024D4B9A614D4B8022D2059D
:102A20009A61802212069A61802212029A612570B0
:102A300021005320B84702AC2000464B9847302372
:102A4000029365602572E67221000020424B9A468F
:102A50009847002200214148414B99469847002160
:102A60000020404B984698470B23029365602572DF
:102A7000E67221000B20D04700220B213A48C847BC
:102A800000210B20C0470C23029365602572E6727B
:102A900021000C20D04700220C213448C8470021D7
:102AA0000C20C047324B98463F2342461370557066
:102AB00095706670A570267021003F20B847434688
:102AC0001A78D1090023002904D15309DB012949CF
:102AD0008C4663441F2111400122100088409861F8
:102AE00002AC227000230393049323746374A274D2
:102AF000E27423752332A354183A002108A81E4B10
:102B000098471E4BA36180235B02E3601C4BA362CA
:102B100001235B42E3621B4B23631B4B63631B4D2F
:102B200022001B4928001B4B98472A68D369002BB9
:102B3000FCD1136802210B43136010B01CBC9046FB
:102B40009946A246F0BDC046ED0D000000290040A8
:102B5000802800404D0D0000610D0000F9280000A4
:102B60000D0C0000390C00000D2900002129000087
:102B700030020020002800401338000000093D000A
:102B80000500530005003E0005005200040100202E
:102B900000100042B5140000064B1A68D369002BE0
:102BA000FCD18F3313751376136802218B431360A6
:102BB0007047C0460401002070B582B00A4CA0479F
:102BC0000A4D802636026E610120094B984701A903
:102BD00000230B7001224A708B702F20054B984701
:102BE000AE61A04702B070BD892900008028004076
:102BF000812C0000ED0D000070B504000D00054BA8
:102C0000984780202043044CA0472800A047034B4E
:102C1000984770BDA929000035290000C52900008A
:102C200010B50400064B98477F202040054CA04774
:102C3000FF20A0470400044B9847200010BDC04669
:102C4000A929000035290000C529000010B5082277
:102C5000024B9A610220024B984710BD8028004029
:102C6000810100000822014B5A6170478028004012
:102C700080225205014B5A617047C046002800402F
:102C800010B5002803D10120024B984710BD024B1C
:102C90009847FBE7550100008101000070B582B044
:102CA00005000E0000226B46DA80064C6B46991D2B
:102CB0002800A0470028F9D16B4606331B883370E3
:102CC00002B070BD0F1C0000F8B5CE46474680B577
:102CD000071E11D000240C4E80239B009846994675
:102CE0004B467361C820094DA8474346B361C820CD
:102CF000A8470134A742F3D180229200024B9A6187
:102D00000CBC90469946F8BD0028004081010000A7
:102D100010B50248024B984710BDC046C84A000093
:102D20001939000070B505008CB2034E210028004F
:102D3000B0470028FAD170BDE91B0000F0B591B092
:102D40008023DB05009300230193FF2269460A815B
:102D500000228B72CB720124242168464454013135
:102D6000445401314354013143540A9305314354CF
:102D70000131435405930382C3760276027742768B
:102D8000132383764277E1235B02089380235B035E
:102D900003931A4B0C931A4B0D9301235B420E9332
:102DA0000F93184D184B1D60184A194B1A60194A99
:102DB000194B1A606A468421C9052800174B9847A9
:102DC000174F3B6898680021164EB0473B6858681B
:102DD0000021B0472E683000134B98471F2318403E
:102DE0008440124B1C602A68D369002BFCD13368E5
:102DF00002221343336011B0F0BDC046030004004B
:102E000003000500700100202C020020252D000089
:102E1000280200209D2C00002402002085180000BC
:102E20002C0000202D3900002514000000E100E0F6
:102E3000F0B5C64600B58AB004008023DB059D7856
:102E4000EDB201005B485C4B9847AC426CD000D8B7
:102E50006EE08023DB059B78DBB29C420ED08023A2
:102E6000DB059B785BB2002B08DB8023DB050122AE
:102E70009A719C701A009379002BFCD002AC012649
:102E800003960025657025726572052398462370A8
:102E900021000020494FB847666065702572657251
:102EA0004346237021000120B8470120444B984736
:102EB00001A90E700020434B98470020424B9847D1
:102EC00005A800238580C5800372437283700722A2
:102ED000827238328281867306823B3A0270437076
:102EE000B723DB004382394B98470720384B98477C
:102EF000384C0720A0470028FBD0374A138B80218D
:102F00000B43138302A901234B6000234B700B7208
:102F10004B7207330B700020284B984706202F4B2D
:102F2000984702202E4B98470AB004BC9046F0BD4B
:102F300002A8022303700023837001334370294BDE
:102F400098470620224B9847224D0620A847002884
:102F5000FBD005A901234B6000234B7006220A70A9
:102F60000B724B720020154B98471B4A137D802132
:102F70000B4313750720194B984700201A4B9847AD
:102F800001201A4B98478023DB059B78DBB29C42DB
:102F9000C7D08023DB059B785BB2002BC1DB80238D
:102FA000DB0501229A719C701A009379002BFCD0EA
:102FB000B7E7C046C44D0000253800006923000073
:102FC000152400007D2500000D250000711F000064
:102FD000F91F000035210000000C0040B520000062
:102FE000C92C0000A11E000045250000552400004A
:102FF000F0B5DE4657464E464546E0B591B0002254
:103000003E236B441A80DC4B9847DC4A136902214B
:103010008B431361DA4B9847DA4B9847DA4B984762
:10302000DA4B98470120DA4B984743070BD0F82436
:103030000440D74D03E021000120D64B98470120E2
:10304000A8478442F7D1D44B9847D44B9847D44BE8
:103050009847D44B984780229200D34B9A61D34B28
:103060009846D34D3E246C4423E00020D14B984732
:103070002388712B00D1BCE0CF4F3E683000CF4B8E
:1030800098471F2318401E3B83408022CC498B5019
:103090003A68D369002BFCD1336802229343336032
:1030A000C54B1A68D369002BFCD101333360BD4B8B
:1030B00098474046A847C34E3000A847C248A84793
:1030C0003000A847C148A847C148A847C148A847F9
:1030D000C148A847C148A847C148A847C148A84710
:1030E000C148A847C148A847B34EC14F210030008E
:1030F000B8470028FAD12188BE48AD4B98472388AD
:10310000613B9AB2052AB3D89300BB4AD3589F4675
:103110000220A84B9847ABE7B848B94B9847002026
:10312000A44B9847802292009F4B9A61FF3AFF3A46
:103130008023DB055A705A78022AFCD1BFF34F8FE7
:1031400030BF0420AF4B984792E7AF4B9E693605DE
:10315000360FAE48AA4B9847002E00D0A5E10020BC
:10316000944B98470520AA4B9847844A93690C21B1
:103170008B4393618023DB05A02292011A819B7807
:10318000002B00D099E1A34A0133FF3311680B43B0
:10319000136092E1A04AD3690127BB43D361122097
:1031A0009E4B984704AE77700023B37037703100A0
:1031B00004209B4FB84731000520B8478022920079
:1031C000794B9A61FC3AFF3A8023DB055A705A78B2
:1031D000052AFCD1BFF34F8F30BF49E70622802379
:1031E000DB055A705A78062AFCD1BFF34F8F30BFE7
:1031F0003EE7854B9B691B051B0F98468948804B12
:1032000098474346002B00D1A4E0142200218648B1
:10321000864B9847804A136A01252B43136204ACFE
:103220002000834B9847A570022666702571657152
:103230000027E77021007F487F4B98471F217D487A
:103240007E4B984720007E4B98472770A57067708B
:103250002A23E6546573A573E7707A4D22007A49F4
:1032600028007A4B98472B681A8C92B2002AFBD11F
:103270008021C903524A116007221A719A711A7883
:1032800002210A431A706F4B1A68138C9BB2002BF1
:10329000FBD101AF38006E4B984725237B7002238A
:1032A0009A460223BB700126FE706A4B994639008C
:1032B0001800694B984704AC267000256570A5700E
:1032C0006671A571E571E67025710A2323815D4B56
:1032D0001B682433E360544B14332361524B202288
:1032E000944663449B466361210018005B4B9847FA
:1032F000594648465A4B98475A4B4A469360137C66
:10330000524613434A461374127857498B5C504611
:1033100003438B544846554B9847A6702671E56089
:10332000E023DB002380E670FA239B00A3607E701D
:103330004F4E22004F4930004F4B984730683B7842
:103340005A1E9341DA0380235B00134300220126B7
:10335000FF2407E00020174B984756E70132082A60
:1033600000D18BE001A98918C9780029F6D0310075
:10337000914021400B43F1E7AD26000000140040CE
:1033800015010000E12900004D2C0000B92B0000C0
:10339000212C0000F92B0000652C0000712C00008E
:1033A000992B00003D2D000000280040584C0000E3
:1033B00025380000312E0000700100202514000087
:1033C00000E100E0E04A0000144B0000384B000030
:1033D0006C4B0000A04B0000D04B0000084C0000DC
:1033E0001C4C0000304C00005C4C0000904C000075
:1033F0000F1C0000944C0000B04A0000A84C0000D4
:1034000019390000C92C000000200041F44C0000D4
:10341000B52000001C1400400004004045250000B9
:10342000ED0D0000544D0000400000301338000046
:10343000250B000030010020390B0000ED0B0000CF
:103440008902000010010020000C0043CD020000A2
:10345000250800003402002039080000F5090000AA
:103460009D0A0000112D0000BC0000206909000029
:1034700038010020002000402D0F00004268134357
:1034800043605C485C4B98474346002B60D18023E7
:10349000DB0532221A819B78002B5DD1574A01331C
:1034A000FF3311680B43136056E00520544B9847D7
:1034B000A02292018023DB051A8180229200514BC9
:1034C0009A61FD3AFF3A8023DB055A705A78042A44
:1034D000FCD1BFF34F8F30BF05204B4B98474B4B70
:1034E00099461F6838004A4B98471F2318401E3BD7
:1034F0008340802247498B504B461B68DA69002A7B
:10350000FCD13B68023293433B60404B1B68DA6955
:10351000002AFCD101233B603F4B98473F48404B7A
:10352000984706203F4B9847002E09D18023DB05A2
:103530009B78002B04D1314A3B4B11680B40136040
:103540003A4A93690C218B4308390B4393618FE509
:1035500030228023DB051A813548364B984780227C
:103560009200284B9A61FD3AFF3A8023DB055A709E
:103570005A78042AFCD1BFF34F8F30BF0520224B6D
:103580009847224E34682000214B98471F2318404B
:103590001E3B834080221F498B503368DA69002A22
:1035A000FCD12368023293432360184B1B68DA690D
:1035B000002AFCD101232360174B98471E48184B63
:1035C00098471E4C14341D4D1D4F1E4E298838003F
:1035D000B0470235A542F9D11B48114B9847062048
:1035E000104B98474346002B02D18023DB059B7884
:1035F000FEE7C046380100201D0E00001C140040EC
:10360000B520000000280040F91F000070010020D4
:103610002514000000E100E03D2D0000304D0000C9
:1036200019390000C92C0000FFFEFFFF0014004004
:103630003402002069090000904D00004000003075
:10364000C04D0000253800008C4C000000224308CB
:103650008B4274D303098B425FD3030A8B4244D35A
:10366000030B8B4228D3030C8B420DD3FF2209029C
:1036700012BA030C8B4202D31212090265D0030B5B
:103680008B4219D300E0090AC30B8B4201D3CB0351
:10369000C01A5241830B8B4201D38B03C01A524193
:1036A000430B8B4201D34B03C01A5241030B8B4295
:1036B00001D30B03C01A5241C30A8B4201D3CB0280
:1036C000C01A5241830A8B4201D38B02C01A524165
:1036D000430A8B4201D34B02C01A5241030A8B4268
:1036E00001D30B02C01A5241CDD2C3098B4201D380
:1036F000CB01C01A524183098B4201D38B01C01AFE
:10370000524143098B4201D34B01C01A5241030974
:103710008B4201D30B01C01A5241C3088B4201D323
:10372000CB00C01A524183088B4201D38B00C01AD0
:10373000524143088B4201D34B00C01A5241411AF7
:1037400000D20146524110467047FFE701B5002004
:1037500000F006F802BDC0460029F7D076E77047B2
:103760007047C046F0B5CE46474615042D0C2E00D6
:1037700080B50704140C3F0C9946030C7E435D434F
:10378000674363437F19340CE4199C46A54203D96F
:1037900080235B029846C4444B465143434336045E
:1037A000360C250C24046544A41959184919200025
:1037B0000CBC90469946F0BD70B500260C4D0D4CE2
:1037C000641BA410A64209D1002601F057FB0A4D44
:1037D0000A4C641BA410A64205D170BDB300EB587F
:1037E00098470136EEE7B300EB5898470136F2E709
:1037F000884E0000884E0000884E00008C4E00006D
:10380000002310B59A4200D110BDCC5CC4540133E2
:10381000F8E703008218934200D170471970013312
:10382000F9E700000FB40B4B13B51C68002C05D052
:10383000A369002B02D1200000F0F2FA05AB049A34
:10384000A1682000019300F0C7FC16BC08BC04B0BE
:103850001847C0462C00002070B505000E00002857
:1038600004D08369002B01D100F0DAFAAB69AC68AF
:10387000002B02D1280000F0D3FA244B9C420FD138
:103880006C68A3891B0702D52369002B20D1210076
:10389000280000F057F900281AD00120404270BDDE
:1038A0001B4B9C4201D1AC68EBE71A4B9C42E8D120
:1038B000EC68E6E7013B0136A360002B04DAA2695D
:1038C000934216DB0A2914D023685A1C226019700F
:1038D0003178A3680029EDD1013BA360002B0FDAFA
:1038E00022000A31280000F0D7F8431CD5D00A2066
:1038F000D5E72200280000F0CFF8431CE8D1CCE740
:103900000A2023685A1C22601870C8E7084E00007D
:10391000284E0000E84D000010B5034B0100186868
:10392000FFF79AFF10BDC0462C0000204A424A41D2
:10393000802310B55200DB0000F002F810BD00003B
:10394000F0B51D004F4B85B01E6804000F000092BB
:10395000002E05D0B369002B02D1300000F060FAD0
:10396000494B9C4250D17468009B022B05D0012B1F
:1039700000D984E0002D00DA81E02100300000F061
:10398000E1F9616B002908D023004433994202D049
:10399000300000F051FB002363630023A3616360E8
:1039A000A3891B0603D52169300000F045FBA389DC
:1039B000364A1340A381009B022B5AD003AB02AAC4
:1039C0002100300000F0C2FAA3891843A081002D25
:1039D00024D1029D280000F025FB0195071E42D14D
:1039E000029B0193AB4239D1012040420223A289BC
:1039F0001343A3810023A360230047332360236183
:103A00000123636105B0F0BD214B9C4201D1B46834
:103A1000AAE7204B9C42A7D1F468A5E7002FD9D094
:103A2000B369002B02D1300000F0FAF9009B012BA2
:103A300003D1A389009A1A43A2810820A389276091
:103A400027616561184018D0012018400023984272
:103A500011D06D42A360A5611800D3E7019800F072
:103A6000E1FA071EC0D08023A289019D1343A381E0
:103A7000D6E70020BAE7A560C4E7A060C2E701204E
:103A80004042BFE72C000020084E00005CF3FFFF1F
:103A9000284E0000E84D0000F8B505000E001400A7
:103AA000002804D08369002B01D100F0B9F9224B22
:103AB0009C422DD16C68A369A360A3891B0731D5F3
:103AC0002369002B2ED023682269F7B2981A636904
:103AD000F6B2984205DB2100280000F033F90028F7
:103AE00026D1A3680130013BA36023685A1C2260E1
:103AF0001F706369984204D0A389DB071AD50A2E88
:103B000018D12100280000F01DF9002812D00FE084
:103B10000A4B9C4201D1AC68CDE7094B9C42CAD10B
:103B2000EC68C8E72100280000F00CF80028CAD093
:103B3000012676423000F8BD084E0000284E0000F5
:103B4000E84D0000364B70B51D6806000C00002DD6
:103B500005D0AB69002B02D1280000F061F9314B90
:103B60009C420FD16C680C23E25E93B219072DD4EE
:103B7000D90611D409230120336037331343A381BD
:103B8000404270BD284B9C4201D1AC68EBE7274B0B
:103B90009C42E8D1EC68E6E75B0713D5616B00292E
:103BA00008D023004433994202D0300000F044FA98
:103BB000002363632422A3899343A38100236360CA
:103BC000236923600823A2891343A3812369002B5F
:103BD0000BD1A0218022A389890092000B4093423F
:103BE00003D02100300000F0D9F90123A28913404D
:103BF00011D00023A36063695B42A36100202369A5
:103C00008342BED10C23E25E1306BAD54023134390
:103C1000A3810138B5E7920700D46369A360EDE79B
:103C20002C000020084E0000284E0000E84D000047
:103C3000F7B58A8905000C00130760D44B68002B88
:103C400004DC0B6C002B01DC0020FEBDE76A002FBA
:103C5000FAD000232E682B6080235B011A4034D0F9
:103C6000606DA3895B0706D56368C01A636B002B80
:103C700001D0236CC01A0200216A00232800E76AE1
:103C8000B847A189431C06D12B681D2B31D82C4A7B
:103C9000DA40D3072DD50023636023692360CB046A
:103CA00005D5431C02D12B68002B00D16065616BE8
:103CB0002E600029C8D023004433994202D0280046
:103CC00000F0BAF900206063BFE70123216A2800F1
:103CD000B847431CC5D12B68002BC2D01D2B01D087
:103CE000162B01D12E60AFE74023A2891343A38195
:103CF000ABE740230B430120A3814042A5E70F69B6
:103D0000002FA1D00B680F60DB1B019300239207EB
:103D100000D14B69A360019B002B00DC94E7019B61
:103D20003A00216A2800A66AB047002803DC402335
:103D3000A2891343DFE7019B3F181B1A0193EAE7AF
:103D4000010040200B6970B505000C00002B01D16B
:103D5000002070BD002804D08369002B01D100F041
:103D60005FF80B4B9C4209D16C680C22A35E002BC0
:103D7000EED021002800FFF75BFFEAE7054B9C42ED
:103D800001D1AC68F1E7044B9C42EED1EC68ECE762
:103D9000084E0000284E0000E84D000010B5024912
:103DA00000F0B2F810BDC046453D0000002310B53C
:103DB000040003604360836081814366C2810361C4
:103DC00043618361190008225C30FFF722FD054B37
:103DD00024626362044BA362044BE362044B2363DB
:103DE00010BDC046454700006D470000A5470000D4
:103DF000D147000070B568254A1E55430E002900C2
:103E0000743100F063F9041E08D000212A0001601B
:103E100046600C30A0606832FFF7FBFC200070BDEC
:103E2000836913B50400002B28D18364C364036540
:103E3000134B144A1B6882620193984201D10123FB
:103E40008361200000F020F86060200000F01CF882
:103E5000A060200000F018F80022E06004216068F3
:103E6000FFF7A4FF01220921A068FFF79FFF0222AC
:103E70001221E068FFF79AFF0123A36113BDC0463A
:103E8000E44D00009D3D0000F8B51E4B07001E6884
:103E9000B369002B02D13000FFF7C2FF4836B46887
:103EA0007368013B04D53368002B07D03668F6E70A
:103EB0000C22A55E002D0DD06834F2E704213800F5
:103EC000FFF798FF30600028F0D10C2304003B601E
:103ED0002000F8BD012320005B42E3810233A3816F
:103EE00065662560A560656025616561A56108223C
:103EF00029005C30FFF78DFC6563A563A564E5646C
:103F0000E6E7C046E44D0000F7B5040007000026D0
:103F100001914834002C01D13000FEBD6368A568D2
:103F20000093009B013B009301D52468F2E7AB8925
:103F3000012B08D90E22AB5E013304D029003800D2
:103F4000019B984706436835EBE7000070B50E000B
:103F50001D000E23C95E90B01400002907DA00236B
:103F60002B60B3891B0611D48023DB000FE001AA6C
:103F700000F05AFC0028F2DBF022029B12021340F0
:103F8000054A9B185A4253412B60EDE7402300201D
:103F9000236010B070BDC04600E0FFFFF7B50226F9
:103FA0008B8905000C00334206D023004733236081
:103FB000236101236361F7BD01AB6A46FFF7C6FFCA
:103FC00000990700280000F081F8002808D10C2291
:103FD000A35E9A05EFD4032293431E43A681E4E730
:103FE0000F4BAB628023A28920601343A381009B07
:103FF00020616361019B002B0DD00E23E15E280040
:1040000000F024FC002806D00322A38993431A0061
:1040100001231343A381A0893843A081CBE7C04685
:104020009D3D000010B5034B0100186800F04EF8EC
:1040300010BDC0462C00002070B50500002910D02E
:104040000C1F2368002B00DAE418280000F02FFC76
:104050001D4A1368002B05D163601460280000F02E
:1040600027FC70BDA34209D9216860188342F3D1AF
:1040700018685B6841182160EEE713005A68002A4F
:1040800001D0A242F9D919685818A0420BD1206872
:104090000918581819608242E0D110685268411816
:1040A00019605A60DAE7A04202D90C232B60D5E7E9
:1040B00021686018824203D110685268411821605B
:1040C00062605C60CAE7C046A4010020032370B5AB
:1040D000CD1C9D43083506000C2D1ED20C25A9428F
:1040E0001DD8300000F0E3FB254A146821000029A8
:1040F00019D1244C2368002B03D1300000F010FBB1
:1041000020602900300000F00BFB431C2CD10C2355
:104110003000336000F0CCFB03E0002DDFDA0C232D
:104120003360002070BD0B685B1B1AD40B2B03D9C6
:104130000B60CC18256003E08C420ED163681360DD
:10414000300000F0B5FB200007220B30231D904308
:10415000C31AE7D05A42E250E4E74B6863600C00B0
:10416000EEE70C004968C2E70323C41C9C43A0424D
:10417000E0D0211A300000F0D3FA431CDAD1C6E7B0
:10418000A4010020A8010020936810B5013B9360B2
:10419000002B05DA9469A34208DBCBB20A2B05D0C9
:1041A0001368581C10601970C8B210BDFFF774FC7A
:1041B000FBE7F8B506000F001400D518AC4201D19A
:1041C000002007E021783A003000FFF7DDFF0134DE
:1041D000431CF3D1F8BD0000F0B59FB006000F00FE
:1041E00014000593002804D08369002B01D1FFF748
:1041F00017FE7F4B9F425CD17768BB891B0762D556
:104200003B69002B5FD0002306AD6B6120336B76DA
:104210001033AB760294029C2378002B5DD1029B75
:10422000E31A04930DD0049B029A39003000FFF783
:10423000C0FF431C00D1CCE06A69049B94466344F0
:104240006B612378002B00D1C3E00122002352428E
:104250006A6002A95432521801342B60EB60AB60E3
:104260001370AB6521780522624800F015FB631CD2
:104270009C46002835D12968CB0604D5532302AAD1
:1042800020309B1818700B0704D553232B2002AA4B
:104290009B18187023782A2B2CD000200A21099B08
:1042A0002278303A092A00D86BE000282AD00993F6
:1042B00028E0514B9F4201D1B7689EE74F4B9F4288
:1042C0009BD1F76899E739003000FFF73BFC0028E5
:1042D00099D0012040421FB0F0BD252B9FD0013462
:1042E0009AE7444B2968C01A012383400B432B6093
:1042F0006446B7E7059B181D1B680590002B3ADB49
:104300000993644623782E2B0BD16378621C2A2BE9
:104310003FD1059B02341A1D1B680592002B35DB2B
:10432000079321780322364800F0B6FA002807D018
:10433000334B2A68C01A4023834013432B60013457
:104340002178631C06222F480293297600F0A4FAF4
:10435000002844D02C4B002B2FD12968059B072225
:10436000C90528D59B189343083305936B69039AB5
:104370009B186B614FE75B42EB6002230B432B60A2
:10438000BFE74B4301349B18012089E701235B42BF
:10439000C6E7002314000A201A006B602178303928
:1043A000092903D9002BBCD00792BAE74243013454
:1043B00052180123F2E70733D5E705AB00933A0023
:1043C000124B2900300000E000BF0390039B013333
:1043D000CCD1BB895B0600D57BE70B987BE705ABAF
:1043E00000933A00094B2900300000F07FF8ECE719
:1043F000084E0000484E0000284E0000E84D000026
:104400004E4E0000524E000000000000B34100007C
:10441000F7B5150001938A680B6900900C00934270
:1044200000DA130022002B6043321278002A01D0F8
:1044300001332B6023689B0602D52B6802332B6067
:10444000062723681F4027D0230043331B785A1EBA
:1044500093412268920630D4220001994332009899
:10446000089EB047431C25D0062320682A68E168CF
:1044700003400025042B03D18D1AEB43DB171D40AD
:10448000A3682269934201DD9B1AED180027BD4203
:1044900020D1002010E00137E3682A689B1A9F4270
:1044A000D2DA22000123193201990098089EB04700
:1044B000431CF0D101204042FEBD3020E1184331C1
:1044C000087021005A1C45310978A2184332023382
:1044D0001170C1E7220001231A3201990098089E49
:1044E000B047431CE6D00137D1E70000F0B58BB0F0
:1044F00006920A0043320793059004920A7E0C004C
:10450000109B6E2A00D18FE017D8632A2CD008D8D0
:10451000002A00D199E0582A54D026004236327041
:1045200029E0642A01D0692AF7D121681A680806AF
:1045300023D5111D1960156825E0732A00D188E084
:1045400008D86F2A29D0702AE7D1202209680A43A7
:10455000226003E0752A20D0782ADED1220078215B
:10456000453211706C4A30E00E001A684236111D57
:10457000196013683370012379E04906D9D5111DFC
:1045800019600023D55E002D03DA2D23049A6D42B5
:104590001370624B0A2703932FE020681968050601
:1045A00003D5081D18600D6805E04006F9D50D68B3
:1045B000081D1860ADB2594B082703936F2A18D015
:1045C0000A2716E045310A70544A03921A68216896
:1045D000101D18601568080622D5CB0702D52023C8
:1045E000194321601027002D03D1202322689A430C
:1045F00022602300002243331A706368A360002BFB
:104600005CDB0422216891432160002D58D1049E77
:10461000002B64D02600039B42361B7833705EE08B
:104620004806DAD5ADB2D8E709681A68080605D594
:10463000111D1960136862691A6006E04906F7D512
:10464000111D19601368A28A1A800023049E236139
:1046500054E01A68111D1960166800216268300064
:1046600000F01AF9002801D0801B606063682361A4
:104670000023049A137041E02369320006990598DB
:10468000079DA847431C43D0236800259B070FD4F0
:10469000099BE06898423DDA18003BE022000123C4
:1046A000193206990598079EB047431C30D0013552
:1046B000E368099A9B1A9D42F0DBE9E7002DA9D037
:1046C000049E28003900FFF747F8039B013E5B5C1E
:1046D000280033703900FEF7B9FF051EF1D1082F0D
:1046E00009D12368DB0706D563682269934202DC9F
:1046F0003023013E3370049B9B1B2361079B09AA57
:1047000000932100069B0598FFF782FE431CB3D15E
:10471000012040420BB0F0BD6A4E0000594E00002F
:10472000002370B5064C050008002360FEF7C6F8AC
:10473000431C03D12368002B00D02B6070BDC04602
:104740005002002070B50C000E25495F00F0B2F851
:10475000002803DB636D1B18636570BDA389024AE3
:104760001340A381F9E7C046FFEFFFFFF8B51F0034
:104770008B8905000C001600DB0505D50E23C95EEC
:104780000022022300F074F8A389054A2800134090
:10479000A38132000E23E15E3B0000F01FF8F8BD5C
:1047A000FFEFFFFF70B50C000E25495F00F060F8C9
:1047B000A389421C03D1054A1340A38170BD802206
:1047C00052011343A3816065F8E7C046FFEFFFFF86
:1047D00010B50E23C95E00F015F810BD70B50500C8
:1047E000080011000022064C22601A00FEF73EF875
:1047F000431C03D12368002B00D02B6070BDC04642
:1048000050020020002370B5064C0500080023600C
:10481000FEF766F8431C03D12368002B00D02B6001
:1048200070BDC04650020020002370B5064C050044
:10483000080011002360FEF756F8431C03D12368DB
:10484000002B00D02B6070BD50020020002370B5FB
:10485000064C050008002360FEF74AF8431C03D10C
:104860002368002B00D02B6070BDC0465002002092
:1048700070B50500080011000022064C22601A00E5
:10488000FEF738F8431C03D12368002B00D02B60BF
:1048900070BDC04650020020C9B28218904201D1BA
:1048A0000020704703788B42FBD00130F6E7704759
:1048B0007047000070B50500080011000022064C8A
:1048C00022601A00FDF7B0FF431C03D12368002BC0
:1048D00000D02B6070BDC04650020020580400007C
:1048E000A2060000A2060000A2060000A206000028
:1048F000A2060000A2060000A2060000A206000018
:10490000A2060000A2060000A2060000A206000007
:10491000A2060000A2060000A2060000400400005B
:10492000A2060000A2060000A2060000A2060000E7
:10493000A2060000A2060000A2060000A2060000D7
:10494000A2060000A2060000A2060000A2060000C7
:10495000A2060000A2060000A2060000500400000B
:10496000A2060000A2060000A2060000A2060000A7
:10497000A2060000A2060000A2060000A206000097
:10498000A2060000A2060000A2060000A206000087
:10499000A2060000A2060000A206000048040000D3
:1049A0006004000028040000380400003004000007
:1049B000FFFF0000FFFF00000400000005000000F2
:1049C000060000000700000020000000FFFF0000BC
:1049D0002200000023000000FFFF0000FFFF000096
:1049E000FFFF0000FFFF00000800000009000000BA
:1049F0000A0000000B000000FFFF0000FFFF0000A6
:104A0000FFFF0000FFFF0000000000420004004222
:104A100000080042000C0042001000420004004365
:104A20001E1E00001A1E00001A1E0000801E00003C
:104A3000801E0000341E0000241E00003A1E0000EC
:104A40006E1E00002420000004200000042000004E
:104A50009E200000162000003220000008200000E8
:104A60004020000082200000DC2000001E21000009
:104A70001E2100001E210000CE200000EA200000C0
:104A8000C0200000F82000000E2100005821000086
:104A90004021000040210000982100004E2100002C
:104AA00062210000442100006C21000084210000EC
:104AB0006A30000010310000183100004A31000057
:104AC00094310000DC310000444D4120696E746572
:104AD0007272757074206F63637572730D000000DD
:104AE0003D3D3D3D3D3D3D3D3D3D3D3D3D3D3D3DF6
:104AF0003D3D3D3D3D3D3D3D3D3D3D3D3D3D3D3DE6
:104B00003D3D3D3D3D3D3D3D3D3D3D3D3D3D3D0A08
:104B10000D0000004D656E753A207072657373204C
:104B200061206B657920746F20636F6E74696E7598
:104B3000652E0A0D00000000202061203A2041432C
:104B400054495645206D6F64653A20506572666F12
:104B5000726D616E6365204C6576656C20302061F6
:104B6000742031324D487A0A0D0000002020622066
:104B70003A20414354495645206D6F64653A2050B0
:104B80006572666F726D616E6365204C6576656CEB
:104B900020322061742034384D487A0A0D0000001C
:104BA000202063203A2049444C45206D6F64653ACB
:104BB00020506572666F726D616E6365204C65761C
:104BC000656C20302061742031324D487A0A0D0026
:104BD000202064203A205354414E444259206D6FA6
:104BE00064653A5044302C50443120616E6420504A
:104BF000443220696E20726574656E74696F6E2030
:104C000073746174650A0D00202065203A204241CA
:104C1000434B5550206D6F64650A0D0020206620BF
:104C20003A204F4646206D6F64650A0D0000000073
:104C3000202071203A20456E7465722064796E617F
:104C40006D696320706F77657220676174696E6744
:104C5000206578616D706C650A0D00002D2D2D2D7D
:104C60002D2D2D2D2D2D2D2D2D2D2D2D2D2D2D2D74
:104C70002D2D2D2D2D2D2D2D2D2D2D2D2D2D2D2D64
:104C80002D2D2D2D2D2D2D2D2D2D2D0A0D0000001E
:104C90003E3E00000D0A596F7520696E70757420D4
:104CA0003A25630D0A0000005761726E696E673A1B
:104CB00053797374656D2077696C6C20656E7465CB
:104CC000722049444C45206D6F64652C706C6561A1
:104CD0007365207761697420756E74696C204C452A
:104CE0004430206265636F6D6573204F4646200D2A
:104CF0000000000053797374656D2077696C6C2037
:104D0000656E746572205354414E444259206D6F54
:104D100064653A73746174696320706F776572209B
:104D2000736C65657077616C6B696E672E0D000042
:104D300053797374656D2077616B6520757020669B
:104D4000726F6D207374616E6279206D6F64650D92
:104D50000000000053797374656D2077696C6C20D6
:104D6000656E746572205354414E444259206D6FF4
:104D700064653A44796E616D696320506F7765723E
:104D800020536C65657057616C6B696E670D000030
:104D900053797374656D2077616B6520757020663B
:104DA000726F6D207374616E6279206D6F64652C13
:104DB0002041444320726573756C740D000000003F
:104DC0002564200053797374656D2077696C6C20BD
:104DD00073776974636820746F20504C3A2564209F
:104DE0000D0A00003000002000000000000000005C
:104DF00000000000000000000000000000000000B3
:104E000000000000000000000000000000000000A2
:104E10000000000000000000000000000000000092
:104E20000000000000000000000000000000000082
:104E30000000000000000000000000000000000072
:104E40000000000000000000232D302B2000686CC3
:104E50004C0065666745464700303132333435369D
:104E600037383941424344454600303132333435D6
:104E7000363738396162636465660000F8B5C0464C
:104E8000F8BC08BC9E467047DD000000F8B5C0467F
:0C4E9000F8BC08BC9E467047B50000004E
:104E9C00401F00000800000001000000000000009E
:104EAC000000000002000000000000000C000000E8
:104EBC000000000000000000000000003000002096
:104ECC0000000000084E0000284E0000E84D0000D5
:104EDC0000000000000000000000000000000000C6
:104EEC0000000000000000000000000000000000B6
:104EFC0000000000000000000000000000000000A6
:104F0C000000000000000000000000000000000095
:104F1C000000000000000000000000000000000085
:040000030000279141
:00000001FF
